:020000040800F2
:10000000F8430020610300087D0100087F0100081B
:1000100083010008870100088B0100080000000030
:100020000000000000000000000000008F01000838
:1000300091010008000000009301000895010008EC
:100040007B0300087B0300087B0300087B03000898
:100050007B0300087B030008632200087B03000881
:100060007B0300087B0300087B0300087B03000878
:100070007B0300087B0300087B0300087B03000868
:100080007B0300087B0300087B0300087B03000858
:100090007B0300087B0300087B0300087B03000848
:1000A0007B0300087B0300087B0300087B03000838
:1000B0007B030008312300087B0300087B03000852
:1000C0007B0300087B0300087B0300087B03000818
:1000D0007B0300083B7D00082F3000087B030008ED
:1000E0007B0300087B0300087B0300087B030008F8
:1000F0007B0300087B0300087B0300087B030008E8
:100100007B0300087B030008412E00087B030008E6
:100110007B0300087B0300087B0300087B030008C7
:100120007B0300087B0300087B0300087B030008B7
:10013000DFF80CD00AF0F8FE00480047450100083F
:10014000F843002010B502F08BFF042200210A487A
:1001500003F04AF940F2DC5002F02CF8042003F0DE
:1001600071FA40F2DC5002F025F804220121024825
:1001700003F03AF9002010BD0000B442704700BF00
:10018000FEE700BFFEE700BFFEE700BFFEE77047E7
:10019000704770477047000000210020674A1268CE
:1001A00042F48032654B1A6000BF644A126802F460
:1001B0000030491C10B9B1F5A06FF6D15F4A126842
:1001C00012F4003F01D0012000E00020012842D1BC
:1001D0005B4A126842F01002594B1A601A461268C4
:1001E00022F003021A601A46126842F002021A60F4
:1001F000524A5268514B5A601A4652685A601A461F
:10020000526842F480625A601A46526822F47C12A4
:100210005A601A46526842F4E8125A601A46126846
:1002200042F080721A6000BF444A126812F0007FE8
:10023000FAD0424A526822F00302404B5A601A46F2
:10024000526842F002025A6000BF3C4A526802F013
:100250000C02082AF9D1704710B5FFF79DFF10BDB9
:1002600010B53648006840F001003449086008467F
:1002700040683449084031494860084600683249BE
:1002800008402E4908600846006820F48020086075
:100290000846406820F4FE0048604FF41F00886064
:1002A000FFF7DAFF4FF000602849086010BD10B575
:1002B000002100200022214B5B6803F00C0121B1DA
:1002C000042906D0082928D107E0214B214C2360BE
:1002D00027E01F4B1F4C236023E0184B5B6803F49F
:1002E0007010164B5B6803F48032022303EB9040DE
:1002F00022B9194B4343174C23600DE00F4B5B6849
:1003000013F4003F04D0144B4343124C236003E02A
:100310000F4B43430F4C236003E00D4B0D4C236008
:1003200000BF00BF054B5B68C3F303130B4CE15CDC
:10033000084B1B68CB40074C236010BD00100240E7
:10034000002002400000FFF8FFFFF6FE08ED00E08D
:1003500000127A000000002000093D000400002087
:100360000648804706480047FEE7FEE7FEE7FEE74F
:10037000FEE7FEE7FEE7FEE7FEE7FEE761020008B4
:100380003101000810B50446CA48844208D1012151
:10039000042000F024FB0021042000F020FB46E0B4
:1003A000C548844208D10121082000F018FB002133
:1003B000082000F014FB3AE0C048844208D1012133
:1003C000102000F00CFB0021102000F008FB2EE0B4
:1003D000BB48844208D10121202000F000FB00210D
:1003E000202000F0FCFA22E0B648844208D1012126
:1003F000402000F0F4FA0021402000F0F0FA16E06E
:10040000B148844208D10121802000F0E8FA00219F
:10041000802000F0E4FA0AE0AC48844207D10121D0
:10042000801500F0DCFA0021A01500F0D8FA10BD0C
:1004300010B50121084600F0D2FA0021012000F099
:10044000CEFA10BD2DE9F04102460025002600201D
:1004500000230024002791F803C00CF00F0591F849
:1004600003C01CF0100F03D091F802C04CEA050540
:10047000B1F800C01CF0FF0F31D0146800202BE051
:100480004FF0010C0CFA00F3B1F800C00CEA0306BF
:100490009E4220D183004FF00F0C0CFA03F7BC43AF
:1004A00005FA03FC4CEA040491F803C0BCF1280FE0
:1004B00006D14FF0010C0CFA00FCC2F814C00AE09F
:1004C00091F803C0BCF1480F05D14FF0010C0CFAB4
:1004D00000FCC2F810C0401C0828D1D31460B1F849
:1004E00000C0BCF1FF0F34DD546800202EE000F1A5
:1004F000080C4FF0010808FA0CF3B1F800C00CEA40
:1005000003069E4221D183004FF00F0C0CFA03F733
:10051000BC4305FA03FC4CEA040491F803C0BCF1A7
:10052000280F05D100F1080C08FA0CF8C2F8148065
:1005300091F803C0BCF1480F07D100F1080C4FF04F
:10054000010808FA0CF8C2F81080401C0828CED325
:100550005460BDE8F0814FF6FF7101800221817087
:100560000421C17070470246002093680B4201D0FD
:10057000012000E0002070470146886880B2704783
:1005800002460020D3680B4201D0012000E0002089
:1005900070470146C86880B2704701617047416189
:1005A00070470AB1016100E041617047C160704766
:1005B0004FF480320A43826181618261826982697B
:1005C000704702460020424B18684FF6807318406F
:1005D00040EA021008433E4B186070473D49C8612D
:1005E0007047F0B50A46002300240021002500F0E2
:1005F0000046B6F1004F02D1354EF16901E0344EAC
:100600007168C0F3034583B200F44016B6F5401F8D
:1006100008D121F070612E4E766826F070662C4F5E
:100620007E6012E000F48016B6F5801F06D1032626
:1006300006FA05F4A14341F0706106E0460D36016B
:1006400003FA06F6B14341F0706122B1460D36015E
:1006500003FA06F6314300F00046B6F1004F02D12E
:100660001B4EF16101E01A4E7160F0BD30B5002201
:100670008B071C0F0F2303FA04F2154B08338C1061
:1006800053F824309343124C08348D1044F825302D
:1006900023468C1053F824308C07240F00FA04F4FE
:1006A00023430B4C08348D1044F8253030BD0A49E3
:1006B0000860704700080140000C01400010014034
:1006C0000014014000180140001C014000200140BE
:1006D0000000014000002042DC002042DB480068AE
:1006E00040F00100D949086008464068D8490840F0
:1006F000D649486008460068D6490840D349086092
:100700000846006820F4802008600846406820F40D
:10071000FE0048604FF41F0088607047CB490968AD
:1007200021F48031C94A11601146096821F4802101
:100730001160B0F5803F03D0B0F5802F0ED106E0F8
:10074000C249096841F48031C04A116007E0BF49DD
:10075000096841F4A021BD4A116000E000BF00BF5C
:10076000704710B501460022002300204A11012ADB
:1007700002D1B64C236806E0022A02D1B34C236AA8
:1007800001E0B24C636A01F01F02012494401C4254
:1007900001D0012000E0002010BD70B5002400252C
:1007A000002600BF3120FFF7DCFF0646641CB4F5CD
:1007B000A06F01D0002EF5D03120FFF7D2FF08B195
:1007C000012500E00025284670BD014600209F4A13
:1007D000106820F0F80040EAC100106070479E49A0
:1007E0000860704702460020984B586820F47C103F
:1007F00042EA01031843954B5860704796490866D2
:10080000704701460020914A506820F003000843D9
:10081000506070478D48406800F00C0070470146FA
:1008200000208A4A506820F0F0000843506070476A
:1008300001460020854A506820F4E060084350607B
:10084000704701460020814A506820F4605040EA19
:10085000C1005060704729B17C4A527A02437B4BF9
:100860005A7206E0794A527AC343DBB21A40774B98
:100870005A72704779490860704701460020734AF0
:10088000506820F440400843506070470021744A8B
:1008900011706E4A82F82010012802D0042808D175
:1008A00003E001216E4A117004E005216C4A1170C9
:1008B00000E000BF00BF70476A49086070476349A5
:1008C000096A0143614A11627047674908607047CD
:1008D00030B500210022002400235C4D6D6805F036
:1008E0000C0121B1042905D0082923D105E05F4D71
:1008F000056022E05D4D05601FE0544D6D6805F414
:100900007012524D6D6805F48034022505EB924259
:100910001CB9574D554305600BE04C4D6D6815F4FF
:10092000003F03D0524D5543056002E04F4D554303
:10093000056002E04D4D056000BF00BF434D6D688E
:1009400005F0F00109094B4D6B5C0568DD40456021
:100950003E4D6D6805F4E061090A464D6B5C4568E3
:10096000DD408560394D6D6805F46051C90A414D1F
:100970006B5C4568DD40C560344D6D6805F44041F1
:10098000890B3D4D6B5CC568B5FBF3F5056130BD6A
:1009900029B12E4A526902432C4B5A6104E02B4A7A
:1009A00052698243294B5A61704729B1274A92699B
:1009B0000243264B9A6104E0244A92698243234B06
:1009C0009A61704729B1214AD26902431F4BDA610B
:1009D00004E01E4AD26982431C4BDA61704729B198
:1009E0001A4AD2680243194BDA6004E0174AD26807
:1009F0008243164BDA60704729B1144A12690243E8
:100A0000124B1A6104E0114A126982430F4B1A61BA
:100A100070471A49086070470F49C86470470B490E
:100A2000C87170470948406A40F0807007494862C1
:100A3000704701460020054A92680A4201D0012011
:100A400000E00020704701498872704700100240A2
:100A50000000FFF8FFFFF6FE00004242D8004242CD
:100A600020100240800442423C04424200127A00BC
:100A700000093D00140000202400002040044242F0
:100A800036490143364A1160704770B50021002392
:100A90000F22C4784CB3324C246804F4E064C4F5EB
:100AA000E0644FEA1421C1F1040322FA01F2447810
:100AB00004FA03F1847804EA020444EA01014FEAEB
:100AC0000111284C0678A155047804F01F054FF059
:100AD000010404FA05F405784FEA65154FF0E026A5
:100AE00006EB8505C5F8004109E0047804F01F0510
:100AF0000124AC401C4D0678761145F8264070BDA7
:100B00001A4A0A4002431A4B1A60704741B1194A07
:100B1000126842EA00024FF0E023C3F8102D07E00C
:100B2000144A126822EA00024FF0E023C3F8102DA5
:100B30007047042808D14FF0E021096941F0040111
:100B40004FF0E022116107E04FF0E021096921F048
:100B500004014FF0E0221161704700000000FA0527
:100B60000CED00E000E400E080E100E080FFFF1F0A
:100B700008ED00E010ED00E000204749086047491B
:100B8000C1F804044649086001F1040108604548C1
:100B900045490860704700213F498279002A43D0C7
:100BA0003E4AD2F8002403689A433C4BC3F8002421
:100BB0001A46D2F8042403689A4301F104031A6028
:100BC000027911440A68036842EA03020A60334A60
:100BD000D2F80824036822EA0302304BC3F8082441
:100BE0001A46D2F80C24036822EA03022F4B1A603B
:100BF0004279102A10D1294AD2F8082403681A43EE
:100C0000264BC3F808241A46D2F80C2403681A436A
:100C1000224BC3F80C240DE01F49427911440A68A5
:100C200003681A430A6005E0027911440A68036800
:100C30009A430A6070470021016001710C214171E3
:100C40000021817170471A49096841EA0001134A7D
:100C5000C2F81014704701460020134A12680A4275
:100C600001D0012000E0002070470F490860704764
:100C7000014600200022084B1B6803EA0102074BD3
:100C8000D3F814340B4202D00AB1012000E0002056
:100C900070470549086070470004014000000140AA
:100CA00008040140FFFF0F00140401400C04014040
:100CB0001004014010B50446FF48844208D10121C8
:100CC000C014FFF78CFE0021E014FFF788FEC4E09B
:100CD000B4F1804F08D101210846FFF78DFE0021B5
:100CE0000120FFF789FEB8E0F448844208D10121D1
:100CF0000220FFF781FE00210220FFF77DFEACE01D
:100D0000EF48844208D101210420FFF775FE00213D
:100D10000420FFF771FEA0E0EA48844208D10121D7
:100D20000820FFF769FE00210820FFF765FE94E028
:100D3000E548844208D101211020FFF75DFE002123
:100D40001020FFF759FE88E0E048844208D10121D5
:100D50002020FFF751FE00212020FFF74DFE7CE010
:100D6000DB48844208D101214014FFF738FE0021FE
:100D70006014FFF734FE70E0D648844209D10121A7
:100D8000C804FFF72CFE00214FF40020FFF727FED8
:100D900063E0D148844209D101210805FFF71FFE15
:100DA00000214FF48010FFF71AFE56E0CB48844232
:100DB00009D101214805FFF712FE00214FF4001070
:100DC000FFF70DFE49E0C648844208D101214020CA
:100DD000FFF712FE00214020FFF70EFE3DE0C14864
:100DE000844208D101218020FFF706FE00218020E7
:100DF000FFF702FE31E0BC48844208D10121801592
:100E0000FFF7FAFD0021A015FFF7F6FD25E0B74832
:100E1000844209D101210804FFF7E1FD00214FF4CC
:100E20008030FFF7DCFD18E0B148844209D1012190
:100E30004804FFF7D4FD00214FF40030FFF7CFFD49
:100E40000BE0AC48844208D101218804FFF7C7FDBC
:100E500000214FF48020FFF7C2FD10BD0022028860
:100E6000954B98420ED09A4B98420BD0B0F1804FE0
:100E700008D0924B984205D0914B984202D0914BAA
:100E8000984204D14FF68F731A404B881A438E4B09
:100E9000984207D08D4B984204D04FF6FF431A403A
:100EA000CB881A4302808B8883850B880385824B0D
:100EB00098420BD0864B984208D08C4B984205D074
:100EC0008B4B984202D08B4B984201D10B7A038610
:100ED00001238382704770B5002400220023058C13
:100EE0004FF6FE7635400584028C8388048B4FF6DE
:100EF0008F752C40B51E2C400D882C43751E2A4042
:100F00000D892A434D882A436B4DA8420BD0704D62
:100F1000A84208D0754DA84205D0754DA84202D010
:100F2000744DA84213D14FF6F7752A404D892A43D4
:100F30004FF6FB752A408D882A434FF6FF652B40FC
:100F40004FF6FF552B408D892B43CD892B43838052
:100F50000483CD888586028470BD70B5002400228C
:100F60000023058C4FF6EF7635400584028C83888C
:100F7000048B48F6FF752C404FF6FF452C400D883A
:100F80002D0644EA15444FF6DF752A400D892D05DC
:100F900042EA15424D882D0542EA1542464DA842C7
:100FA00002D04B4DA8421BD14FF67F752A404D8988
:100FB0002D0542EA15424FF6BF752A408D882D0552
:100FC00042EA15424FF6FF352B404FF2FF752B409A
:100FD0008D89AD0443EA1543CD89AD0443EA154339
:100FE00083800483CD880587028470BD70B500249A
:100FF00000220023058C4FF6FF6635400584028CE5
:101000008388848B4FF68F752C404FF6FC752C40EF
:101010000D882C434FF6FF552A400D892D0642EAD4
:1010200015424D882D0642EA1542234DA84202D0B2
:10103000274DA8421BD14FF2FF752A404D892D063E
:1010400042EA15424FF6FF352A408D882D0642EAC6
:1010500015424EF6FF752B404DF6FF752B408D89DE
:101060002D0543EA1543CD892D0543EA15438380B9
:101070008483CD888587028470BD70B500220023EB
:101080000024058C4EF6FF7635400584038C848859
:10109000828B48F6FF752A404FF6FF452A400D889F
:1010A0002D0642EA15424DF6FF752B400D892D079E
:1010B00043EA15434D881FE0002C01400004004026
:1010C00000080040000C00400010004000140040E8
:1010D00000340140004C01400050014000540140E8
:1010E00000180040001C004000200040004001406B
:1010F00000440140004801402D0743EA1543F94DE3
:10110000A84202D0F84DA84206D14BF6FF752C40FC
:101110008D89AD0544EA154484808283CD88A0F88A
:101120004050038470BD828B4FF2FF331A4082839C
:10113000828B0B0642EA134282837047F0B50C465D
:101140001546002200210026078C4EF6FF7C07EA98
:101150000C070784828B018C27073E0C40F6FF4763
:101160003A402F0642EA17421F0742EA1742DD4F74
:10117000B8420ED0DC4FB8420BD0B0F1804F08D04F
:10118000DA4FB84205D0DA4FB84202D0D94FB84250
:1011900006D14DF6FF77394046F48057394305E0D4
:1011A00047F6FF57394044F480573943828301841E
:1011B000F0BD828B4FF6F3731A408283828B0A4311
:1011C00082837047F0B50C461546002200210026A8
:1011D000078C4FF6FF6C07EA0C070784828B018CA3
:1011E00027063E0C4FF60C773A401F0545EA174795
:1011F0003A43BC4FB8420ED0BB4FB8420BD0B0F10F
:10120000804F08D0B94FB84205D0B94FB84202D08C
:10121000B84FB84206D14FF6FF57394046F48077B1
:10122000394305E04FF2FF57394044F480773943A2
:1012300082830184F0BD028B4FF2FF331A40028398
:10124000028B0B0642EA134202837047F0B50C464C
:101250001546002200210026078C4FF6EF7C07EA96
:101260000C070784028B018C27053E0C40F6FF47D4
:101270003A401F0742EA17422F0642EA1742994FA7
:10128000B8420ED0984FB8420BD0B0F1804F08D082
:10129000964FB84205D0964FB84202D0954FB8420B
:1012A00006D14FF6DF77394046F01007394305E0A5
:1012B0004FF65F77394044F01007394302830184C9
:1012C000F0BD028B4FF6F3731A400283028B0A4380
:1012D00002837047F0B50C46154600220021068CAB
:1012E0004FF6FE773E400684028B018C4FF60C765B
:1012F00032401E0545EA164632437A4EB0420ED0C1
:10130000794EB0420BD0B0F1804F08D0774EB0424A
:1013100005D0774EB04202D0764EB04206D14FF69D
:10132000FD76314044F00106314305E04FF6F57695
:10133000314044F00106314302830184F0BD70B5B1
:1013400005460C46674885420ED0674885420BD05B
:10135000B5F1804F08D06548854205D06448854284
:1013600002D06448854200D100E000BF208850B917
:101370002389A28861882846FFF7ACFFE1882846C8
:10138000FFF79FFF25E0208804280AD12389A2883F
:1013900061882846FFF75AFFE1882846FFF74BFF90
:1013A00017E0208808280AD12389A2886188284666
:1013B000FFF708FFE1882846FFF7FBFE09E02389D5
:1013C000A28861882846FFF7B9FEE1882846FFF722
:1013D000AAFE70BD2DE9F04105460C460026012706
:1013E000608808B9022600E00026A088012801D103
:1013F000022700E001272088A0B92389A2886188FC
:101400002846FFF767FFE1882846FFF75AFF238940
:101410003A4631462846FFF719FFE1882846FFF78C
:101420000AFF13E02389A28861882846FFF70EFF90
:10143000E1882846FFF7FFFE23893A4631462846D1
:10144000FFF748FFE1882846FFF73BFFBDE8F08142
:101450000A884B881A438B881A43CB881A430B8916
:101460001A434B891A438B891A43A0F844207047CA
:101470004FF6FF71818000210180C180418001729F
:1014800070470021018041808180C18001814181BC
:101490008181C181704700210180418001218180CB
:1014A0000021C1800181704700210180418081803D
:1014B000C180018141818181704721B1028842F060
:1014C0000102028004E002884FF6FE731A40028097
:1014D000704789B1B0F8442042F40042A0F844209B
:1014E00010E00000002C01400034014000040040E6
:1014F00000080040000C0040B0F84420C2F30E0287
:10150000A0F84420704710B51AB183890B4383813A
:1015100004E08389CC43A4B22340838110BD81823F
:10152000704741EA0203A0F84830704710B51AB17D
:1015300083890B43838104E08389CC43A4B2234095
:10154000838110BD01894FF6F87211400181704707
:101550000A46002101894FF68F731940114301811A
:10156000704730B504460D4629462046FFF7F0FF88
:10157000208940F00700208130BD2DE9F04104466C
:101580000D4616461F46602D06D13B4601223146C8
:101590002046FFF75BFE05E03B4601223146204630
:1015A000FFF798FE29462046FFF7D2FF208940F03A
:1015B00007002081BDE8F08130B50C46002101898B
:1015C000C9B21D0642EA154525432943018130BDB4
:1015D0002DE9F04105460E4617469846002443463D
:1015E0003A4631462846FFF7E7FF2C894FF6F87157
:1015F0000C4044F007044FF68F710C4044F0700427
:101600002C81BDE8F081F0B504460D4616461F4614
:101610003B46324629462046FFF7CEFF208940F45C
:1016200080402081F0BD0185828270470A460021FA
:1016300001884FF68F731940114301807047F0B550
:101640000C4615461E460021002200230189028B0C
:10165000038C4FF6F877394021434FF6FC473A4068
:1016600040F201173A434FF6DD773B40370545EA34
:1016700017473B43018102830384F0BD0A460021E2
:10168000018B4FF68F7319401143018370470A464F
:101690000021018B48F6FF731940130641EA1341FC
:1016A000018370470A460021818B4FF68F731940E2
:1016B0001143818370470A460021818B48F6FF73EE
:1016C0001940130641EA13418183704721B1028812
:1016D00042F08002028004E002884FF67F731A40D5
:1016E0000280704721B1828842F00402828004E0C7
:1016F00082884FF6FB731A408280704721B182883E
:1017000042F00802828004E082884FF6F7731A40A4
:101710008280704721B1828842F00102828004E019
:1017200082884FF6FE731A40828070470A46002175
:10173000018B4FF6F77319401143018370470A4636
:101740000021018B4FF2FF731940130641EA134148
:10175000018370470A460021818B4FF6F7731940C9
:101760001143818370470A460021818B4FF2FF733A
:101770001940130641EA1341818370470A4600214C
:10178000018B4FF6FB7319401143018370470A46E2
:101790000021018B4FF6FF331940130641EA134134
:1017A000018370470A460021818B4FF6FB73194075
:1017B0001143818370470A460021818B4FF6FF3326
:1017C0001940130641EA1341818370470A460021FC
:1017D000018B4FF67F7319401143018370470A460E
:1017E0000021018BC1F30E01130641EA134101836D
:1017F00070470A460021818B4FF67F7319401143D1
:10180000818370470A460021818BC1F30E011306C4
:1018100041EA1341818370470A460021018C4FF64B
:10182000FD7319401143018470470A460021018C61
:101830004FF6F77319401143018470470A4600219F
:10184000018C4FF6DF731940130541EA13410184FF
:1018500070470A460021018C4FF67F73194013052B
:1018600041EA1341018470470A460021018C4FF67A
:10187000FF531940130641EA1341018470470A4699
:101880000021018C4FF2FF731940130641EA134106
:10189000018470470A460021018C4DF6FF73194000
:1018A000130741EA13410184704730B50023012436
:1018B0008C40A3B2048CDD43ADB22C400484048C74
:1018C00002FA01F5ADB22C43048430BD30B50023DB
:1018D00004248C40A3B2048CDD43ADB22C400484BC
:1018E000048C02FA01F5ADB22C43048430BD70B50E
:1018F0000346002000241846183001258D40ACB264
:101900001D8CE643B6B235401D8409B1082909D1C2
:1019100000EB6100056825F070050560056815435A
:1019200005600CE00D1FADB200EB6500056825F405
:10193000E04505600568160645EA1645056070BD78
:1019400021B1028842F00202028004E002884FF6D0
:10195000FD731A400280704721B1028842F00402F0
:10196000028004E002884FF6FB731A400280704741
:1019700021B1828842F08002828004E082884FF6A2
:101980007F731A408280704702884FF6F7731A40BF
:10199000028002880A430280704782884FF68F7364
:1019A0001A40828082880A438280704702894FF6FB
:1019B000F8731A40028102890A4302817047028942
:1019C0004FF67F731A40028102890A4302817047F1
:1019D0008184704781857047818670470187704791
:1019E00081877047A0F84010704702884FF6FF4388
:1019F0001A40028002880A43028070470146888E9E
:101A000070470146088F70470146888F704701462E
:101A1000B1F8400070470146888C70470146088D38
:101A2000704702460020138A0B4201D0012000E0DB
:101A300000207047CA430282704730B5024600203A
:101A400000230024158A05EA0103958905EA0104AB
:101A500013B10CB1012000E0002030BDCA43028266
:101A60007047000010B50446BF48844208D10121E8
:101A70008014FEF7B4FF0021A014FEF7B0FF16E0BB
:101A8000BA48844208D101210014FEF7B5FF0021B5
:101A90002014FEF7B1FF0AE0B548844207D10121C6
:101AA000C013FEF7A9FF0021E013FEF7A5FF10BD4C
:101AB00010B50022028802F441520B884C8823435F
:101AC0008C882343CC8823430C8923434C892343AC
:101AD0008C892343CC8923431A430280838B4FF2A2
:101AE000FF74234083830B8A038210BD2DE9F04FDE
:101AF00085B005460C464FF0000902274FF000085C
:101B00004FF0010B0026B246A88B4FF2400108406F
:101B1000A88302202884B5F81C90A068022801D16F
:101B200000BF36E0A08810B94FF0010B01E04FF084
:101B3000020B8E48854200D100E000BF6846FEF7E8
:101B4000C7FEDDF800A0E088B0F5007F0AD14FEABB
:101B50001A2000EB80004000A168B0FBF1F0401DAE
:101B600086B20BE04FEA4B10BAFBF0F000EB8000BE
:101B70004000A168B0FBF1F0401D86B20A20B6FB20
:101B8000F0F606F00108A6EB0800C0F34F074FEA95
:101B90000828022F01DBFF2F02DD02274FF000088B
:101BA000E08840EA080038432884A088A1890843D7
:101BB000618808432188084340F4006040EA09092D
:101BC000A5F81C9005B0BDE8F08F00210180418090
:101BD0008180C180018141818181C1810721018290
:101BE00070470021018041808180C1800221816095
:101BF00000218181704721B1028842F040020280B9
:101C000004E002884FF6BF731A400280704721B18A
:101C1000828B42F48062828304E0828B4FF6FF3332
:101C20001A408283704770B5002400230C110125EF
:101C3000A540ABB21AB185881D43858004E0858834
:101C4000DE43B6B23540858070BD10B51AB18388C9
:101C50000B43838004E08388CC43A4B22340838079
:101C600010BD81817047014688897047A1F57E4289
:101C7000FF3A04D0028842F48072028004E00288B5
:101C80004FF6FF631A400280704721B1828842F00C
:101C90000402828004E082884FF6FB731A4082803F
:101CA000704702884FF2FF731A40028002880A438D
:101CB00002807047018841F480510180704721B152
:101CC000028842F40052028004E002884DF6FF735D
:101CD0001A400280704702460020012901D0108B73
:101CE00000E0908A70470146088A7047B1F5804F3E
:101CF00004D1028842F48042028004E002884BF65C
:101D0000FF731A40028070470246002013890B427D
:101D100001D0012000E000207047CA4302817047D3
:101D2000F0B50246002000240023002501F00F0733
:101D30000126BE40B4B20B1101269E40B3B2968874
:101D400006EA03051689264202D00DB1012000E003
:101D50000020F0BD10B5002201F00F040123A340C4
:101D60009AB2D343038110BD0030014000380040D7
:101D7000003C004010B50446FC48844209D10121D2
:101D80008803FEF72CFE00214FF48040FEF727FE6B
:101D900032E0F748844209D101214804FEF72CFEC5
:101DA00000214FF40030FEF727FE25E0F148844281
:101DB00009D101218804FEF71FFE00214FF4802085
:101DC000FEF71AFE18E0EC48844209D10121C8044C
:101DD000FEF712FE00214FF40020FEF70DFE0BE08F
:101DE000E648844208D101210805FEF705FE0021DE
:101DF0004FF48010FEF700FE10BD2DE9F04786B0CD
:101E000005460E460024A24600BFA1460027B08921
:101E100000B100BF2F462C8A4CF6FF700440F088BA
:101E200004432C82AC894EF6F3100440B08831890B
:101E30000843718908430443AC81AC8A4FF6FF40E4
:101E40000440B0890443AC8201A8FEF741FDC748B5
:101E5000874202D1DDF810A001E0DDF80CA0A889CE
:101E600010F4004F08D00AEBCA0000EB0A103168EA
:101E70004900B0FBF1F807E00AEBCA0000EB0A10DA
:101E800031688900B0FBF1F86420B8FBF0F0040180
:101E90002009642101FB1089A88910F4004F08D0A3
:101EA000322000EBC900B0FBF1F000F00700044362
:101EB00008E0322000EB09106421B0FBF1F000F0E3
:101EC0000F0004432C8106B0BDE8F0874FF4165193
:101ED000016000218180C18001810C2141810021AC
:101EE0008181704710B502460020108A4FF2FF032F
:101EF00018400B884C8823438C882343CC88234389
:101F00001843108210BD0021018041808180C18072
:101F1000704721B1828942F40052828104E08289B3
:101F20004DF6FF731A4082817047F0B503460024D6
:101F3000002600250020A1F510676A3F00D100BFF0
:101F40001846C1F3421401F01F06012707FA06F5EF
:101F5000012C01D10C3004E0022C01D1103000E042
:101F600014301AB107682F43076002E00768AF43D7
:101F70000760F0BD10B51AB1838A0B43838204E079
:101F8000838ACC43A4B22340838210BD028A4FF6D9
:101F9000F0731A400282028A0A43028270478289E1
:101FA0004FF2FF731A40828182890A43828170470F
:101FB00021B1828942F00202828104E082894FF6D7
:101FC000FD731A4082817047028A4FF6DF731A4010
:101FD0000282028A0A430282704721B1028A42F4D5
:101FE0008042028204E0028A4BF6FF731A400282AA
:101FF0007047C1F308028280704701468888C0F3A9
:1020000008007047818941F0010181817047028B8E
:10201000D2B20283028B42EA012202837047028B12
:1020200002F47F420283028B0A430283704721B18C
:10203000828A42F02002828204E0828A4FF6DF73B5
:102040001A408282704721B1828A42F01002828255
:1020500004E0828A4FF6EF731A408282704721B102
:10206000828A42F00802828204E0828A4FF6F77385
:102070001A408282704721B1828942F400428281F3
:1020800003E08289C2F30E028281704721B1828A05
:1020900042F40062828204E0828A4FF2FF731A40A7
:1020A00082827047828A4FF6FB731A408282828A4C
:1020B0000A438282704721B1828A42F00202828200
:1020C00004E0828A4FF6FD731A408282704702460E
:1020D0000020B1F5007F00D100BF13880B4201D072
:1020E000012000E00020704701F40072B2F5007F8B
:1020F00000D100BFCA430280704770B50246002479
:10210000002300250020A1F510666A3E00D100BF23
:10211000C1F3421501F01F03012606FA03F3012D56
:1021200002D19689334006E0022D02D1168A33404F
:1021300001E0968A33400C12012606FA04F4168850
:10214000344013B10CB1012000E0002070BD10B587
:1021500000220023A1F510646A3C00D100BF0A12DE
:1021600001249440A3B2DC43048010BD0038014038
:102170000044004000480040004C00400050004037
:10218000014601EBC1024FF0E0235A6101221A61BE
:1021900000229A6100BF4FF0E022106910F0010F99
:1021A00002D010F4803FF6D000224FF0E0231A61F5
:1021B0009A617047014642F228324A434FF0E023C9
:1021C0005A6101221A6100229A6100BF4FF0E02299
:1021D000106910F0010F02D010F4803FF6D00022F9
:1021E0004FF0E0231A619A61704700001FB501218A
:1021F0000846FEF7DAFB01214020FEF7D6FB01205E
:10220000ADF80C0048208DF80F0003208DF80E006B
:1022100003A92A48FEF716F900210420FEF726FA42
:102220000120019000208DF808000C208DF8090095
:1022300001208DF80A0001A8FEF7ADFC4FF4C06044
:10224000FEF71EFC06208DF8000000208DF801002E
:102250008DF8020001208DF803006846FEF715FC9A
:102260001FBD10B50120FEF703FD012824D1FEF7A4
:1022700010FD0A20FFF79EFF01211048FEF773F9B9
:1022800098B90A20FFF796FF4FF400510C48FEF76B
:1022900077F928B94FF400510948FEF77EF904E0B8
:1022A0004FF400510648FEF77AF900BF01210348B8
:1022B000FEF759F90028F9D010BD000000180140C0
:1022C000001401401FB501210220FEF77BFB012114
:1022D0001A48FFF7C3FB4FF4FA60ADF8080048F660
:1022E0009F40ADF804000020ADF80A00ADF80600EC
:1022F00001A91248FEF7B2FD01211048FFF7DDF8F1
:10230000012211460D48FFF7FEF84FF4C060FEF7BA
:10231000B7FB1D208DF8000000208DF801008DF81E
:10232000020001208DF803006846FEF7AEFB1FBDDA
:1023300010B501210148FFF791FB10BD00040040DA
:1023400070B504460D46E1B23048FFF752FE00BFBB
:1023500080212E48FFF7BBFE0028F9D0204670BD33
:1023600000B587B0012144F20500FEF71EFB4FF4D3
:102370000070ADF8180003208DF81A0018208DF8B1
:102380001B0006A92248FEF75DF84FF48060ADF807
:10239000180004208DF81B0006A91D48FEF752F80E
:1023A0004FF4C060FEF76CFB25208DF81400002070
:1023B0008DF815008DF8160001208DF8170005A87E
:1023C000FEF763FB4FF4165001900020ADF80800B3
:1023D000ADF80A00ADF80C00ADF810000C20ADF817
:1023E0000E0001A90948FFF708FD01210748FFF782
:1023F00090FD012240F225510448FFF796FD40214F
:102400000248FFF771FE07B000BD00000038014030
:102410000008014070B50546002405E0601C84B248
:10242000C82C01DD002070BD0221F248FFF76CFCD2
:102430000028F3D02946EF48FFF713FC002405E0FD
:10244000601C84B2C82C01DD0020ECE70121E948C2
:10245000FFF75AFC0028F3D0E648FFF704FCC0B2AF
:10246000E1E700B587B001210820FEF79EFA0121BF
:102470008803FEF7A7FA4FF46040ADF81800182063
:102480008DF81B0003208DF81A0006A9DA48FDF725
:10249000D9FF0020ADF804004FF48270ADF80600BB
:1024A0000020ADF80800ADF80A00ADF80C004FF4BC
:1024B0000070ADF80E003820ADF810000020ADF827
:1024C00012000720ADF8140001A9CA48FFF7F0FA7E
:1024D0000121C848FFF78FFBFF20FFF79BFF07B0E4
:1024E00000BD08B501214020FEF75FFAE020ADF8FD
:1024F000000010208DF8030003208DF802006946CB
:10250000BE48FDF79FFF2021BC48FEF746F840215A
:10251000BA48FEF742F88021B848FEF73EF8FFF7C8
:10252000A0FF08BD2DE9F04F8BB00027B846B94693
:1025300000200A90B248007801286FD100263EE0C2
:102540002021AE48FEF72BF81020FFF763FFFF2095
:10255000FFF760FFADF82800FF20FFF75BFFADF845
:102560002A00BDF82A0040F2ED51B1EB601F01DDF9
:10257000012000E00020BDF8281050EAC10017D06B
:10258000BDF82A004FF40571B1EB601F01DC01209A
:1025900000E00020BDF8281050EAC10008D0BDF8C6
:1025A0002800C000BDF82A1040EA61100744761CDC
:1025B00020219248FDF7F1FF0220FFF7FBFD322EAC
:1025C000BED3384608F08CFA019008F0D0FA002209
:1025D0008C4BCDE9020108F00BFA044600228A4B2D
:1025E00008F08FF9894A8A4BCDE9040108F000FA16
:1025F000CDE9060109F0CAFD864A874BCDE90801FD
:1026000008F085F9824608F0C8FA8449086000207D
:102610007B49087020217948FDF7BFFF804800788A
:1026200001286FD100263EE040217448FDF7B7FF36
:102630001020FFF7EFFEFF20FFF7ECFEADF82800BB
:10264000FF20FFF7E7FEADF82A00BDF82A0040F2B0
:10265000ED51B1EB601F01DD012000E00020BDF86D
:10266000281050EAC10017D0BDF82A004FF40571B8
:10267000B1EB601F01DC012000E00020BDF8281054
:1026800050EAC10008D0BDF82800C000BDF82A10EB
:1026900040EA61108044761C40215848FDF77DFFD8
:1026A0000220FFF787FD322EBED3404608F018FA0D
:1026B000019008F05CFA0022524BCDE9020108F0CB
:1026C00097F982460022504B08F01BF904464F4A06
:1026D0004F4B08F08DF9CDE9040109F057FD4D4A43
:1026E0004D4BCDE9060108F012F9CDE9080108F0DB
:1026F00054FA4C49086000204949087040213F487D
:10270000FDF74BFF4848007801286FD100263EE0D6
:1027100080213A48FDF743FF1020FFF77BFEFF20A2
:10272000FFF778FEADF82800FF20FFF773FEADF845
:102730002A00BDF82A0040F2ED51B1EB601F01DD27
:10274000012000E00020BDF8281050EAC10017D099
:10275000BDF82A004FF40571B1EB601F01DC0120C8
:1027600000E00020BDF8281050EAC10008D0BDF8F4
:102770002800C000BDF82A1040EA61108144761C90
:1027800080211E48FDF709FF0220FFF713FD322EBE
:10279000BED3484608F0A4F9019008F0E8F90022F9
:1027A000184BCDE9020108F023F904460022164B2C
:1027B00008F0A7F88246154A154B08F019F9CDE93B
:1027C000040109F0E3FC134A134BCDE9060108F0BC
:1027D0009EF8CDE9080108F0E0F9144908600020EE
:1027E0001149087080210548FDF7D7FE0BB0BDE800
:1027F000F08F000000380040000C0140001801403C
:10280000280000200000494000009040B81E85EBE1
:1028100051B87E40E79AD56194A94C402C00002025
:1028200029000020300000202A0000203400002071
:1028300008B501210820FEF7B8F84FF44060ADF864
:10284000000003208DF8020010208DF80300694677
:10285000F948FDF7F7FD4FF48061F748FDF79DFE5D
:102860004FF40061F448FDF798FE08BD08B54FF439
:102870000060ADF8000003208DF8020010208DF8F4
:1028800003006946EC48FDF7DDFD08BD08B54FF4CF
:102890000060ADF8000048208DF803006946E64866
:1028A000FDF7D0FD08BD10B5FFF7E0FF4FF4006164
:1028B000E148FDF772FE4FF48061DF48FDF76DFEE1
:1028C0000520FFF75DFC4FF40061DB48FDF767FE74
:1028D0000620FFF755FC4FF48061D748FDF75FFEF7
:1028E00010BD10B5FFF7C2FF4FF48061D248FDF76D
:1028F00056FE4FF40061D048FDF751FE4FF4806161
:10290000CD48FDF74AFE0620FFF73AFC4FF4006180
:10291000C948FDF742FE0620FFF732FC10BD10B596
:102920004FF48061C448FDF73AFEFFF79FFF4FF474
:102930000061C148FDF733FE0220FFF721FC4FF490
:102940008061BD48FDF729FE0520FFF719FC4FF413
:102950008061B948FDF723FE10BD10B54FF48061CA
:10296000B548FDF71CFEFFF781FF4FF40061B24848
:10297000FDF713FE0220FFF703FC4FF48061AE4821
:10298000FDF70BFE0520FFF7FBFB4FF48061AA4823
:10299000FDF705FE10BD10B50024FFF777FF4FF4DB
:1029A0000061A548FDF7F9FD0120FFF7E9FB4FF4B1
:1029B0008061A148FDF7F1FD0120FFF7E1FB07E091
:1029C000601CC4B2FA2C03DDFFF78BFF012010BDA1
:1029D0004FF400619848FDF7C6FD0028F0D14FF490
:1029E00080619548FDF7DBFD0020F0E770B50446F7
:1029F0000025FFF73BFF4FF480618F48FDF7CFFDC7
:102A000000BF22E004F08000002805DD4FF40061E3
:102A10008948FDF7C2FD04E04FF400618648FDF7E8
:102A2000BEFD6006040E4FF480618348FDF7B5FDDE
:102A30000220FFF7A5FB4FF480617F48FDF7AFFD53
:102A40000220FFF79DFB681CC5B2082DDADB70BDC4
:102A500070B5054600260024FFF718FF00BF1BE0F5
:102A60004FF480617448FDF79AFD0220FFF788FB60
:102A70004FF480617048FDF790FD6006040E4FF43E
:102A800000616D48FDF76FFD08B1601CC4B2012004
:102A9000FFF776FB701CC6B2082EE1DB15B9FFF715
:102AA0005CFF01E0FFF73BFF204670BD08B5012148
:102AB0000820FDF77AFFC020ADF8000003208DF854
:102AC000020010208DF8030069465B48FDF7BAFC50
:102AD00040215948FDF761FD80215748FDF75DFD14
:102AE00008BD08B58020ADF8000003208DF8020075
:102AF00010208DF8030069464F48FDF7A3FC08BD80
:102B000008B58020ADF8000048208DF80300694624
:102B10004948FDF797FC08BD10B5FFF7E2FF80219B
:102B20004548FDF73AFD40214348FDF736FD0520B5
:102B3000FFF726FB80214048FDF731FD0620FFF717
:102B40001FFB40213C48FDF72AFD10BD10B5FFF7E3
:102B5000C8FF40213848FDF722FD80213648FDF7A7
:102B60001EFD40213448FDF718FD0620FFF708FB45
:102B700080213148FDF711FD0620FFF701FB10BD54
:102B800010B540212C48FDF70AFDFFF7AAFF802170
:102B90002948FDF704FD0220FFF7F2FA40212648FC
:102BA000FDF7FBFC0520FFF7EBFA40212248FDF77B
:102BB000F6FC10BD10B540211F48FDF7F0FCFFF7F3
:102BC00090FF80211C48FDF7E8FC0220FFF7D8FAAF
:102BD00040211948FDF7E1FC0520FFF7D1FA40211B
:102BE0001548FDF7DCFC10BD10B50024FFF788FF89
:102BF00080211148FDF7D1FC0120FFF7C1FA4021E7
:102C00000D48FDF7CAFC0120FFF7BAFA07E0601C87
:102C1000C4B2FA2C03DDFFF799FF012010BD80211B
:102C20000548FDF7A0FC0028F1D140210248FDF73E
:102C3000B6FC0020F2E70000000C014070B504462D
:102C40000025FFF74EFF40212848FDF7A8FC00BFF4
:102C50001EE004F08000002804DD80212348FDF7F9
:102C60009CFC03E080212148FDF799FC6006040EDE
:102C700040211E48FDF791FC0220FFF781FA402118
:102C80001A48FDF78CFC0220FFF77AFA681CC5B2DF
:102C9000082DDEDB70BD70B5054600260024FFF769
:102CA0002FFF00BF18E040211048FDF778FC0220FC
:102CB000FFF766FA40210D48FDF76FFC6006040E31
:102CC00080210A48FDF74FFC08B1601CC4B2012006
:102CD000FFF756FA701CC6B2082EE4DB15B9FFF7F1
:102CE00069FF01E0FFF74CFF204670BD000C01407A
:102CF00000B587B001210820FDF764FE03217C4860
:102D0000FEF7ACFE4FF6FF70ADF814004720ADF8AB
:102D100010000020ADF81600ADF8120004A97448A8
:102D2000FEF79CF80020ADF80400ADF80600012085
:102D3000ADF808000020ADF80A00ADF80C0001A9BC
:102D40006B48FEF7FCFA4FF4C060FDF799FE3220A5
:102D50008DF8000000208DF8010001208DF80200A0
:102D60008DF803006846FDF790FE01216048FEF7EC
:102D7000A4FB012203215E48FEF7C5FB07B000BD9E
:102D800008B501212020FDF710FE4FF40050ADF8EA
:102D9000000010208DF8030003208DF80200694622
:102DA0005448FDF74FFB08BD2DE9F0474FF40051A3
:102DB0005048FDF7F4FB0220FFF7E2F94FF4005111
:102DC0004C48FDF7EAFB0A20FFF7DAF94FF400510F
:102DD0004848FDF7E4FB4848007810F0800F0BD01E
:102DE0004548007800F03F084FEA0848434800880B
:102DF0008044002040490870404607F071FE82463A
:102E00003F49504607F09EFC8246504607F0AFFE11
:102E1000064600223B4B07F07AFD044607F0BDFE54
:102E20008146484607F0A3FE06460022354B07F0D0
:102E3000DFFD044607F0B1FE82465046BDE8F0874C
:102E400010B52D48007810F0800F1FD101212848BF
:102E5000FEF7F3FDD0B12848007810F0400F15D0F0
:102E60002548007800F03F003F280AD1224800782A
:102E700040F08000204908704FF6FF701F4908801D
:102E800004E01D480078401C1B49087002211848C6
:102E9000FEF7D3FD38B31848007810F0400F0FD07C
:102EA0001548007840F08000134908701048FEF77C
:102EB000A5FD1249088000210D48FEF7ADFC12E087
:102EC00000200D4908700D49088000210848FEF7D0
:102ED0007FFD0948007840F0400007490870022152
:102EE0000348FEF799FC03210148FEF7B7FD10BD2A
:102EF000000C004000140140380000203A0000207F
:102F000000006842000059402DE9F041ADF5007D18
:102F100005460E46FF27B8467A1C0F4940A807F021
:102F200071FB7A1C0D49684607F06CFB09E015F847
:102F3000010B80EA080440A8005D80EA07081DF83C
:102F400004703000A6F10101CEB2F0D148EA0720AA
:102F50000DF5007DBDE8F081D8C70008D8C800088D
:102F600000B587B001210520FDF71FFD01214804B0
:102F7000FDF728FD0420ADF8180018208DF81B007F
:102F800003208DF81A0006A9FC48FDF75BFA4FF400
:102F90008070ADF8180010208DF81B0003208DF80C
:102FA0001A0006A9F548FDF74DFA0820ADF81800FB
:102FB00004208DF81B0003208DF81A0006A9EF48A5
:102FC000FDF740FA4FF4165002900020ADF80C00C7
:102FD000ADF80E00ADF81000ADF814000C20ADF8FF
:102FE000120002A9E648FEF708FF012240F225512F
:102FF000E348FEF79AFF4021E148FFF775F8012109
:10300000DF48FEF786FF4FF4C060FDF739FD26204C
:103010008DF8040000208DF8050001208DF80600D1
:103020008DF8070001A8FDF730FD07B000BD10B511
:1030300040F22551D248FFF760F880B1D048FEF742
:10304000DCFFC4B2CF480078092808DACE48CD4961
:1030500009784454CB480078401CCA49087010BD18
:1030600008B5FDF7FDF801212020FDF79EFC47F68D
:10307000FB70ADF8000010208DF8030003208DF8E0
:1030800002006946C148FDF7DDF9FFF769FF08BD99
:1030900070B505460E464FF48071B848FDF77DFACD
:1030A0000120FFF787F800240CE000BF4021B4485E
:1030B000FFF70DF80028F9D0295DB148FEF799FF18
:1030C000601CC4B2B442F0DB00BF4021AC48FEF744
:1030D000FEFF0028F9D00020AA4908704FF4807143
:1030E000A648FDF75CFA0120FFF764F870BD2DE9F2
:1030F000F04107460D46A3480678002400202870BA
:103100000A20FFF757F89F48007886420FD176B122
:1031100000BF04E09C48005D3855601CC4B2B44256
:10312000F8DB984800782870002096490870BDE8C0
:10313000F08130B593B0054695A103C9CDE91101E1
:10314000082D35D2DFE805F034040A11181F262DAA
:1031500001208DF84400904908702AE002208DF883
:10316000440001208C49087023E003208DF84400BE
:103170000120894908701CE004208DF844000120DA
:103180008549087015E005208DF84400012082492A
:1031900008700EE006208DF8440001207E4908707A
:1031A00007E007208DF8440001207B49087000E00B
:1031B00000BF00BF062111A8FFF7A6FE044620129B
:1031C0008DF84B00E0B28DF84A0073480078012872
:1031D00006D1002070490870082111A8FFF758FF98
:1031E0001420FEF7E7FF694601A8FFF780FF9DF86E
:1031F000000090B39DF804009DF8441088422CD143
:103200009DF805009DF84510884226D19DF80600DE
:103210009DF84610884220D19DF807009DF8471080
:1032200088421AD19DF808009DF84810884214D1B0
:103230009DF809009DF8491088420ED19DF80A00BA
:103240009DF84A10884208D19DF80B009DF84B105C
:10325000884202D101205149087013B030BD2DE9D8
:10326000F04194B005464FF000084DA103C9CDE9E7
:103270000101082D21D2DFE805F02004080C10140C
:10328000181C01208DF8040018E002208DF80400BD
:1032900014E003208DF8040010E004208DF80400F1
:1032A0000CE005208DF8040008E006208DF80400ED
:1032B00004E007208DF8040000E000BF00BF0621F5
:1032C00001A8FFF721FE044620128DF80B00E0B2A2
:1032D0008DF80A003148007830B100202F4908707D
:1032E000082101A8FFF7D4FE1420FEF763FF03A90D
:1032F00004A8FFF7FCFE9DF80C0058B39DF81000E1
:103300009DF80410884225D19DF81100032821D191
:103310009DF8120004281DD1072104A8FFF7F4FD31
:1033200004462612E7B29DF81700B84212D19DF864
:103330001800B0420ED19DF8130000069DF814103D
:1033400040EA01409DF8151040EA01209DF8161052
:1033500040EA0108404614B0BDE8F0812DE9F04193
:1033600005462846FFF7E5FE2846FFF778FF0446A6
:10337000012D01D0022D19D10B4F18E0000801409A
:10338000004400403C000020B80000200014014030
:10339000010800000102605A3E0000203D000020AC
:1033A00001031006000220CA00002041C24FC3489A
:1033B000B4FBF0F004280CD10020621C60EB00018B
:1033C000104607F092FB8046394607F0BBF90646E7
:1033D00007E0204607F084FB8046394607F0B2F943
:1033E00006463046BDE8F0812DE9F04780460E469E
:1033F0001746082F7AD2DFE807F079042B527AA219
:10340000CCF7AF49404607F067F9814607F09BFBD0
:103410000546012E04D10221AA48FDF7BEF803E0BB
:103420000221A848FDF7BBF800240EE00121A548C1
:10343000FDF7B5F83C20FEF7A3FE0121A148FDF7FA
:10344000ACF83C20FEF79CFE641CAC42EED3F6E0E8
:103450009B49404607F040F9814607F074FB05465A
:10346000012E04D110219748FDF797F803E01021B1
:103470009448FDF794F800240EE008219148FDF7E8
:103480008EF81420FEF77CFE08218E48FDF785F8A3
:103490001420FEF775FE641CAC42EED3CFE08649E3
:1034A000404607F019F9814607F04DFB0546012E0D
:1034B00004D140218348FDF770F803E040218148A2
:1034C000FDF76DF800240EE020217E48FDF767F837
:1034D0003C20FEF755FE20217A48FDF75EF83C209F
:1034E000FEF74EFE641CAC42EED3A8E0A6E07249A3
:1034F000404607F0F1F8814607F025FB0546012E0E
:1035000004D131026F48FDF748F804E04FF48071B0
:103510006C48FDF744F800240EE080216948FDF76F
:103520003EF83C20FEF72CFE80216648FDF735F87A
:103530003C20FEF725FE641CAC42EED37FE05E49E2
:10354000404607F0C9F8814607F0FDFA0546012E0E
:1035500004D1B1025B48FDF720F804E04FF480612C
:103560005848FDF71CF8002410E04FF4007155484E
:10357000FDF715F83C20FEF703FE4FF400715148AB
:10358000FDF70BF83C20FEF7FBFD641CAC42ECD3CE
:1035900055E04949404607F09FF8814607F0D3FAC5
:1035A0000546012E04D131034648FCF7F6FF04E03E
:1035B0004FF480514348FCF7F2FF002410E04FF431
:1035C00000614048FCF7EBFF3C20FEF7D9FD4FF4CB
:1035D00000613C48FCF7E1FF3C20FEF7D1FD641C94
:1035E000AC42ECD32BE0FFE73349404607F074F8D8
:1035F000814607F0A8FA0546012E04D1B1033148EF
:10360000FCF7CBFF04E04FF480412E48FCF7C7FFE6
:10361000002410E04FF400512A48FCF7C0FFC820F6
:10362000FEF7AEFD4FF400512648FCF7B6FFC82068
:10363000FEF7A6FD641CAC42ECD300E000BF00BF67
:10364000BDE8F0872DE9F04105462846FFF771FDFA
:103650002846FFF704FE0446012D01D0022D01D1BA
:10366000174F00E0144F1548B4FBF0F0042813D1B5
:103670004FF0000C411F0A1B6CEB0C01104607F0C9
:1036800034FA8046394607F05DF806462A4600219E
:103690003046FFF7A9FE0CE0204607F021FA8046ED
:1036A000394607F04FF806462A4601213046FFF713
:1036B0009BFEBDE8F081000000007A4400CA9A3BFE
:1036C000000020410014014008B5FCF7C9FD0121AC
:1036D0004FF4C070FDF769F94FF6FF70ADF80000C8
:1036E00010208DF8030003208DF802006946F84889
:1036F000FCF7A8FE43F6FF70ADF8000010208DF82F
:10370000030003208DF802006946F248FCF79AFE98
:10371000FFF78EF8FFF7CAF908BD70B5054600241B
:10372000FFF7FAF92846FFF789FAFFF75DFA062056
:10373000FFF784FAFFF758FAFF20FFF77FFAFFF749
:1037400053FAFF20FFF77AFAFFF74EFAFFF7FEF978
:10375000FFF7E2F92846FFF771FAFFF745FA012073
:10376000FFF76CFAFFF740FAFFF7D6F9681CC5B20D
:103770002846FFF763FAFFF737FA0120FFF78BFAC5
:10378000044624020020FFF786FA0443FFF712FAEA
:10379000FFF7DCF9204670BD70B506460C461546AD
:1037A000FFF781F83046FFF721F9FFF7F4F806201C
:1037B000FFF71CF9FFF7EFF80020FFF717F9FFF705
:1037C000EAF80020FFF712F9FFF7E5F8FFF789F8AC
:1037D000FFF769F83046FFF709F9FFF7DCF8022038
:1037E000FFF704F9FFF7D7F82046FFF7FFF8FFF7D8
:1037F000D2F82846FFF7FAF8FFF7CDF8FFF771F88F
:103800000A20FEF7D7FC70BD2DE9F04780460E4632
:103810001746102F72D2DFE807F07108335E8AB5C1
:10382000E3FEFDFCFBFAF9F8F7F6AB49404606F07B
:1038300053FF8246A94906F085FF814607F083F9C8
:103840000546012E04D10121A148FCF7A6FE03E0A4
:1038500001219F48FCF7A3FE00240EE002219C48B2
:10386000FCF79DFE5020FEF78BFC02219848FCF7E8
:1038700094FE5020FEF784FC641CAC42EED382E23E
:103880009549404606F028FF8246944906F05AFFC3
:10389000814607F058F90546012E04D104218C48D1
:1038A000FCF77BFE03E004218948FCF778FE002446
:1038B0000EE008218648FCF772FE5020FEF760FCFF
:1038C00008218348FCF769FE5020FEF759FC641C70
:1038D000AC42EED357E28049404606F0FDFE8246F8
:1038E0007E4906F02FFF814607F02DF90546012E8F
:1038F00005D110217648FCF750FE04E042E2102189
:103900007348FCF74CFE00240EE020217048FCF7C1
:1039100046FE5020FEF734FC20216D48FCF73DFEAA
:103920005020FEF72DFC641CAC42EED32BE26A491A
:10393000404606F0D1FE8246684906F003FF814604
:1039400007F001F90546012E04D140216048FCF73B
:1039500024FE03E040215E48FCF721FE00240EE037
:1039600080215B48FCF71BFE5020FEF709FC8021FC
:103970005748FCF712FE5020FEF702FC641CAC42D4
:10398000EED300E25449404606F0A6FE8246534973
:1039900006F0D8FE814607F0D6F80546012E04D180
:1039A00031024B48FCF7F9FD04E04FF480714848C0
:1039B000FCF7F5FD002410E04FF400714448FCF7DB
:1039C000EEFD5020FEF7DCFB4FF400714048FCF7A1
:1039D000E4FD5020FEF7D4FB641CAC42ECD3D2E1F2
:1039E0003D49404606F078FE82463C4906F0AAFE74
:1039F000814607F0A8F80546012E0DD1B1023448E2
:103A0000FCF7CBFD0DE08FE160E130E104E1D8E0AF
:103A1000ACE080E049E01AE04FF480612C48FCF70C
:103A2000BEFD002410E04FF400612948FCF7B7FD0B
:103A30005020FEF7A5FB4FF400612548FCF7ADFDD3
:103A40005020FEF79DFB641CAC42ECD39BE1224965
:103A5000404606F041FE8246204906F073FE81464C
:103A600007F071F80546012E04D131031848FCF720
:103A700094FD04E04FF480511548FCF790FD0024BC
:103A800010E04FF400511248FCF789FD5020FEF77A
:103A900077FB4FF400510E48FCF77FFD5020FEF7F6
:103AA0006FFB641CAC42ECD36DE10B49404606F061
:103AB00013FE8246094906F045FE814607F043F8A9
:103AC0000546012E0CD1B1030148FCF766FD0CE060
:103AD000001C01400020014000004844000040401C
:103AE0004FF48041FD48FCF75AFD002410E04FF4EC
:103AF0000041FA48FCF753FD5020FEF741FB4FF41C
:103B00000041F648FCF749FD5020FEF739FB641CE4
:103B1000AC42ECD337E1F249404606F0DDFD824687
:103B2000F04906F00FFE814607F00DF80546012E1C
:103B300004D10121EC48FCF730FD03E00121EA4803
:103B4000FCF72DFD00240EE00221E748FCF727FDDD
:103B50005020FEF715FB0221E348FCF71EFD502024
:103B6000FEF70EFB641CAC42EED30CE1DC49404690
:103B700006F0B2FD8246DB4906F0E4FD814606F020
:103B8000E2FF0546012E04D10421D748FCF705FDCC
:103B900003E00421D448FCF702FD00240EE00821D4
:103BA000D148FCF7FCFC5020FEF7EAFA0821CE4889
:103BB000FCF7F3FC5020FEF7E3FA641CAC42EED3B2
:103BC000E1E0C749404606F087FD8246C54906F058
:103BD000B9FD814606F0B7FF0546012E04D110213C
:103BE000C148FCF7DAFC03E01021BF48FCF7D7FC22
:103BF00000240EE02021BC48FCF7D1FC5020FEF749
:103C0000BFFA2021B848FCF7C8FC5020FEF7B8FAEC
:103C1000641CAC42EED3B6E0B149404606F05CFD10
:103C20008246B04906F08EFD814606F08CFF0546BF
:103C3000012E04D14021AC48FCF7AFFC03E0402149
:103C4000A948FCF7ACFC00240EE08021A648FCF754
:103C5000A6FC5020FEF794FA8021A348FCF79DFCB7
:103C60005020FEF78DFA641CAC42EED38BE09C49E9
:103C7000404606F031FD82464FF0814106F062FD7C
:103C8000814606F060FF0546012E04D131029648B8
:103C9000FCF783FC04E04FF480719348FCF77FFC51
:103CA000002410E04FF400718F48FCF778FC50209E
:103CB000FEF766FA4FF400718B48FCF76EFC50205B
:103CC000FEF75EFA641CAC42ECD35CE084494046EB
:103CD00006F002FD8246834906F034FD814606F077
:103CE00032FF0546012E04D1B1027F48FCF755FC96
:103CF00004E04FF480617C48FCF751FC002410E0A4
:103D00004FF400617848FCF74AFC5020FEF738FA7F
:103D10004FF400617448FCF740FC5020FEF730FA85
:103D2000641CAC42ECD32EE06D49404606F0D4FC56
:103D300082466C4906F006FD814606F004FF054602
:103D4000012E04D131036848FCF727FC04E04FF44E
:103D500080516548FCF723FC002410E04FF400512B
:103D60006148FCF71CFC5020FEF70AFA4FF40051A2
:103D70005D48FCF712FC5020FEF702FA641CAC42CE
:103D8000ECD300E000BF00BFBDE8F0872DE9F047AD
:103D900080460E461746122F73D2DFE807F07209ED
:103DA000345F8BBFF9F7F6F5F4F3F2F1F0EFEEEDD7
:103DB0004B49404606F090FC82464A4906F0C2FC58
:103DC000814606F0C0FE0546012E04D1012143487C
:103DD000FCF7E3FB03E001214048FCF7E0FB002493
:103DE0000EE002213D48FCF7DAFB0820FEF7C8F997
:103DF00002213A48FCF7D1FB0820FEF7C1F9641C08
:103E0000AC42EED3F0E23649404606F065FC82460D
:103E1000344906F097FC814606F095FE0546012ED2
:103E200004D104212D48FCF7B8FB03E004212B4802
:103E3000FCF7B5FB00240EE008212848FCF7AFFB97
:103E40000820FEF79DF908212448FCF7A6FB08206E
:103E5000FEF796F9641CAC42EED3C5E22049404619
:103E600006F03AFC82461F4906F06CFC814606F0DB
:103E70006AFE0546012E05D110211848FCF78DFB7E
:103E800004E0B0E210211548FCF789FB00240EE0A5
:103E900020211248FCF783FB0820FEF771F920214E
:103EA0000E48FCF77AFB0820FEF76AF9641CAC4266
:103EB000EED399E20A49404606F00EFC82460949D3
:103EC00006F040FC814606F03EFE0546012E0DD16F
:103ED00040210248FCF761FB0CE00000001C01409F
:103EE0000000484400004040002001404021FC48C0
:103EF000FCF755FB00240EE08021F948FCF74FFB4E
:103F00000820FEF73DF98021F548FCF746FB082024
:103F1000FEF736F9641CAC42EED365E2F149404647
:103F200006F0DAFB8246F04906F00CFC814606F00A
:103F30000AFE0546012E04D13102E948FCF72DFBAB
:103F400004E04FF48071E648FCF729FB002410E000
:103F50004FF40071E248FCF722FB0820FEF710F94D
:103F60004FF40071DE48FCF718FB0820FEF708F953
:103F7000641CAC42ECD337E205E2D4E19DE16EE192
:103F80003CE110E1E4E0B8E08CE05DE02EE0FFE72A
:103F9000D449404606F0A0FB8246D34906F0D2FB46
:103FA000814606F0D0FD0546012E04D1B102CC4871
:103FB000FCF7F3FA04E04FF48061C948FCF7EFFA2C
:103FC000002410E04FF40061C548FCF7E8FA08202F
:103FD000FEF7D6F84FF40061C148FCF7DEFA08207E
:103FE000FEF7CEF8641CAC42ECD3FDE1BD4940467F
:103FF00006F072FB8246BC4906F0A4FB814606F03F
:10400000A2FD0546012E04D13103B548FCF7C5FADF
:1040100004E04FF48051B248FCF7C1FA002410E0EC
:104020004FF40051AE48FCF7BAFA0820FEF7A8F8A2
:104030004FF40051AA48FCF7B0FA0820FEF7A0F8A8
:10404000641CAC42ECD3CFE1A649404606F044FBE9
:104050008246A54906F076FB814606F074FD0546CA
:10406000012E04D1B1039E48FCF797FA04E04FF407
:1040700080419B48FCF793FA002410E04FF4004184
:104080009748FCF78CFA0820FEF77AF84FF40041C5
:104090009348FCF782FA0820FEF772F8641CAC42E1
:1040A000ECD3A1E18F49404606F016FB82468E49CB
:1040B00006F048FB814606F046FD0546012E04D178
:1040C00001218A48FCF769FA03E001218748FCF7DF
:1040D00066FA00240EE002218448FCF760FA08200A
:1040E000FEF74EF802218148FCF757FA0820FEF748
:1040F00047F8641CAC42EED376E17A49404606F0BC
:10410000EBFA8246784906F01DFB814606F01BFD5E
:104110000546012E04D104217448FCF73EFA03E061
:1041200004217248FCF73BFA00240EE008216F4896
:10413000FCF735FA0820FEF723F808216B48FCF756
:104140002CFA0820FEF71CF8641CAC42EED34BE1BD
:104150006449404606F0C0FA8246634906F0F2FA26
:10416000814606F0F0FC0546012E04D110215F487F
:10417000FCF713FA03E010215C48FCF710FA002466
:104180000EE020215948FCF70AFA0820FDF7F8FF55
:1041900020215648FCF701FA0820FDF7F1FF641CC6
:1041A000AC42EED320E14F49404606F095FA8246F4
:1041B0004D4906F0C7FA814606F0C5FC0546012EBA
:1041C00004D140214948FCF7E8F903E04021474881
:1041D000FCF7E5F900240EE080214448FCF7DFF904
:1041E0000820FDF7CDFF80214048FCF7D6F90820D4
:1041F000FDF7C6FF641CAC42EED3F5E039494046FA
:1042000006F06AFA82464FF0814106F09BFA814639
:1042100006F099FC0546012E04D131023348FCF723
:10422000BCF904E04FF480713048FCF7B8F9002481
:1042300012E04FF400712D48FCF7B1F94FF44870CB
:10424000FDF79EFF4FF400712848FCF7A6F94FF4E4
:104250004870FDF795FF641CAC42EAD3C4E02149E5
:10426000404606F039FA82461F4906F06BFA81464D
:1042700006F069FC0546012E04D1B1021B48FCF78B
:104280008CF904E04FF480611848FCF788F90024A9
:1042900010E04FF400611548FCF781F91420FDF798
:1042A0006FFF4FF400611148FCF777F91420FDF718
:1042B00067FF641CAC42ECD396E00A49404606F026
:1042C0000BFA8246084906F03DFA814606F03BFCAF
:1042D0000546012E0CD131030448FCF75EF90CE0D1
:1042E000001C014000004844000040400020014004
:1042F0004FF480513E48FCF752F9002410E04FF48F
:1043000000513B48FCF74BF91420FDF739FF4FF4FF
:1043100000513748FCF741F91420FDF731FF641CC8
:10432000AC42ECD360E03349404606F0D5F9824612
:10433000314906F007FA814606F005FC0546012ED4
:1043400004D131032D48FCF728F904E04FF48051E3
:104350002A48FCF724F9002412E04FF400512748C2
:10436000FCF71DF94FF4FA70FDF70AFF4FF4005106
:104370002248FCF712F94FF4FA70FDF701FF641CB4
:10438000AC42EAD330E01B49404606F0A5F982462C
:10439000194906F0D7F9814606F0D5FB0546012EEE
:1043A00004D1B1031548FCF7F8F804E04FF480415C
:1043B0001248FCF7F4F8002412E04FF400410F48D3
:1043C000FCF7EDF84FF4FA70FDF7DAFE4FF4004118
:1043D0000A48FCF7E2F84FF4FA70FDF7D1FE641CCE
:1043E000AC42EAD300E000BF00BFBDE8F0870000A8
:1043F000002001400000484400004040001C0140F3
:104400002DE9F04F89B0FEF78DF84FF47A70FDF783
:10441000D1FEFF48007801287ED10720FEF79EFFDD
:10442000804606F0A4FB0646FA4AFB4B06F06FFAFC
:10443000044606F0B2FBF9490860F948006806F046
:1044400096FB21F0004106464FF03332F54B06F063
:104450005BFA0446EF4AF04B06F059FA804606F044
:104460009CFBF14908600846006806F080FB0646A0
:104470000F46EE48006806F07AFB21F0004181F01B
:10448000004132463B46CDE9060106F03AFA0446C1
:104490000022E74B06F035FA8246DE4ADE4B06F094
:1044A00036FA804606F079FBE2490860DE4800688B
:1044B00006F05DFB064608F0BBF804460022DE4B22
:1044C00006F025FA80468946DA480168D648006831
:1044D00006F0AAF8019006F04AFB064608F0A8F894
:1044E00004460022D54B06F012FA824642464B465D
:1044F00006F068F9CDE90401C848006806F037FB0A
:10450000044608F095F8CDE90201DDE9042306F040
:10451000FEF9CDE9060100E0D1E006F03EFBC84916
:104520000860C148006806F022FB064608F080F8E3
:1045300004460022C04B06F0EAF980468946BD4891
:104540000168B948006806F06FF8019006F00FFBAB
:10455000044608F06DF806460022B84B06F0D7F97D
:10456000824642464B4606F02DF9CDE90401AB48A0
:10457000006806F0FCFA044608F0B0F8CDE9020144
:10458000DDE9042306F0C3F9CDE9060106F005FBD9
:10459000AC490860A448006806F0E9FACDE90601D4
:1045A00008F09CF804460022A34B06F0B0F906463A
:1045B0000F46A04801689C48006806F035F8059051
:1045C00006F0D5FACDE9060108F088F80446002285
:1045D0009A4B06F09CF9804632463B4606F0F2F8CC
:1045E000824606F0DAFA984908608F48006806F0BB
:1045F000BEFA8246954A964B06F086F9CDE904014B
:1046000008F016F8934A944BCDE9060106F07FF9BD
:1046100004460022914B06F077F9064608F0B6F8FA
:10462000804606F0BAFA8E4908608248006880F039
:10463000004A504606F09BFA06468A4A8A4B06F024
:1046400060F9044607F0F4FF0022884BCDE902012F
:1046500006F05DF9864A874BCDE9040106F054F96E
:10466000804608F093F8CDE9060106F096FA8249F3
:1046700008607048006880F0004B6B48016858463D
:1046800006F024F8824606F072FA064607F0D0FFDC
:1046900000227A4BCDE9040106F039F90446784A44
:1046A000784B06F031F9804608F070F8CDE9060144
:1046B00006F073FA7449086000205549087009B083
:1046C000BDE8F08F07B59EB001201890189801281A
:1046D0007ED15B4801681E9805F0A6FF5849086026
:1046E00058481F99006805F09FFF564908605648D2
:1046F0002099006805F098FF534908604748006812
:1047000006F035FACDE912014D4801684D480068C0
:1047100006F018F80D9006F02AFACDE90E0107F020
:1047200075FECDE91001DDE9122306F0EAF8574ADB
:10473000574BCDE9140106F0EAF8CDE9160106F071
:104740002CFA19903E4801683E48006805F0FAFFCF
:10475000139006F00CFACDE9140107F057FECDE9ED
:10476000160106F01AFA2D4908600846006806F09E
:10477000FEF9CDE90C0107F0B1FFCDE91001314898
:10478000006806F0F4F9CDE90E01DDE9102306F02A
:10479000BEF8CDE914012148006806F0E8F9CDE93A
:1047A0000C0107F045FFCDE910012548006806F02F
:1047B000DEF9CDE90E01DDE9102306F0A8F8CDE918
:1047C0001201DDE9142305F0FDFFCDE9160100E03B
:1047D00051E206F0E2F91D901D99084605F07CFFB4
:1047E000109019480168006805F076FF0F90109945
:1047F00005F01AFF2749119005F068FF264912902D
:1048000005F0A0FF139006F0B2F9CDE9140145E0E0
:104810004000002055098BD9F4DC913F4400002072
:104820002C00002033331F404800002034000020BB
:1048300000002C404C00002000C0824000C07240AC
:1048400054000020580000205C000020B5D68C5B8E
:104850002ED7FC3F295C8FC28DBDF940A88BFF404D
:10486000600000207AF499C60926A13F408A0241DF
:1048700085EB51B8607B0641640000200000EE40EB
:104880008FC2F5285C0FF84068000020E79AD561D8
:1048900094A94C4000BADB4800C8AF4807F034FB8D
:1048A00081F00041CDE9160106F077F9F74908607B
:1048B0000846006806F05BF9CDE9000107F00EFF3D
:1048C000CDE90401F248006806F051F9CDE9020192
:1048D000DDE9042306F01BF8CDE908011D9806F078
:1048E00046F9CDE90401E948006806F040F9CDE950
:1048F000000107F09DFECDE90201DDE9042306F089
:1049000006F8CDE90601DDE9082305F05BFF00228A
:10491000E04BCDE90A0105F0FAFFCDE90E01DE48D2
:104920001D9905F0D9FE0B9006F021F9CDE90C0197
:10493000DDE90E2305F046FFCDE91201D3480068FA
:1049400006F015F9CDE9000107F072FECDE904018A
:10495000CF48006806F00BF9CDE90201DDE9042338
:1049600005F0D5FFCDE908011D9806F000F9CDE965
:104970000401C648006806F0FAF8CDE9000107F026
:10498000ADFECDE90201DDE9042305F0C0FFCDE96C
:104990000601DDE9082305F0B4FF0022BD4BCDE997
:1049A0000A0105F0B4FFCDE90E01B9480168BA4823
:1049B00005F092FE0B9006F0DAF8CDE90C01DDE986
:1049C0000E2305F09EFFCDE91001DDE9122306F06C
:1049D0000FF8CDE9140107F019FDCDE9160106F035
:1049E000DCF8AE490860AE48006806F0C0F8CDE9D2
:1049F0001401AA48006806F0BAF8AA4AAA4BCDE901
:104A0000080105F081FFCDE90A0107F011FEA74A70
:104A1000A74BCDE90C0105F07AFF0022A54BCDE9AB
:104A20000E0105F071FFCDE9100107F0AFFECDE9F1
:104A30001201DDE9142305F064FFCDE9160106F04B
:104A4000ACF81C909C48006806F091F8CDE9140180
:104A50008E48006880F00040079006F088F8974A7A
:104A6000974BCDE9080105F04CFFCDE90A0107F0AD
:104A7000DFFD0022934BCDE90C0105F048FF924A7F
:104A8000924BCDE90E0105F03FFFCDE9100107F093
:104A90007DFECDE91201DDE9142305F032FFCDE9F9
:104AA000160106F07AF81B908948006806F05FF856
:104AB000CDE914017548006880F0004008907748FF
:104AC0000168089805F002FE099006F050F8CDE95B
:104AD0000A0107F0ADFD00227E4BCDE90C0105F087
:104AE00016FF7D4A7D4BCDE90E0105F00DFFCDE9A6
:104AF000100107F04BFECDE91201DDE9142305F0AA
:104B000000FFCDE9160106F048F81A9063480068E6
:104B100006F02DF8634A644BCDE90C0105F0F4FE74
:104B2000CDE90E0107F084FD604A614BCDE910012B
:104B300005F0EDFE00225F4BCDE9120105F0E4FE29
:104B4000CDE9140107F022FECDE9160106F025F8A3
:104B5000534908604D48006880F000400B9006F013
:104B600006F8564A564BCDE90C0105F0CAFECDE9D0
:104B70000E0107F05DFD0022524BCDE9100105F05A
:104B8000C6FE514A514BCDE9120105F0BDFECDE9FB
:104B9000140107F0FBFDCDE9160105F0FEFF4649C3
:104BA00008603A48006880F000400C903B4801687B
:104BB0000C9805F08BFD0D9005F0D9FFCDE90E01A5
:104BC00007F036FD0022434BCDE9100105F09FFEB2
:104BD000414A424BCDE9120105F096FECDE91401A0
:104BE00007F0D4FDCDE9160105F0D7FF384908607C
:104BF0000021199805F0F8FF05D207220021199825
:104C0000FEF7F2FB07E0199880F00040072201212F
:104C10001790FEF7E9FB00211A9805F0E5FF05D291
:104C20000F2201211A98FFF7B1F807E01A9880F0D7
:104C300000400F2200211790FFF7A8F800211B98D1
:104C400005F0D2FF05D20E2201211B98FFF79EF836
:104C500007E01B9880F000400E2200211790FFF71C
:104C600095F800211C9805F0BFFF05D20D22012107
:104C70001C98FFF78BF807E01C9880F000400D228D
:104C800000211790FFF782F821B000BD4C000020F2
:104C90005C00002000C07240000016444800002064
:104CA00060000020B5D68C5B2ED7FC3F295C8FC2FC
:104CB0008DBDF940A88BFF40640000207AF499C6AE
:104CC0000926A13F408A024185EB51B8607B06412D
:104CD000680000200000EE408FC2F5285C0FF8400D
:104CE0002DE9F04106460127012F07D1FF49304643
:104CF00005F0F2FC804605F00DFF05464FF480718B
:104D0000FB48FBF74AFC4FF48061F948FBF745FC90
:104D10004021F748FBF743FC4FF48051F448FBF780
:104D20003EFC00242AE02021F148FBF738FC8021DA
:104D3000EF48FBF734FC4FF40071ED48FBF72FFC14
:104D40004FF40061EA48FBF72AFC3C20FDF718FA13
:104D50002021E748FBF721FC8021E548FBF71DFCFB
:104D60004FF40071E248FBF718FC4FF40061E04893
:104D7000FBF713FC3C20FDF703FA641CAC42D2DBCA
:104D8000BDE8F0812DE9F04106460127012F07D14A
:104D9000D649304605F0A0FC804605F0BBFE05462E
:104DA0004021D348FBF7F9FB4FF48051D048FBF783
:104DB000F4FB4FF48071CE48FBF7F1FB4FF48061B8
:104DC000CB48FBF7ECFB00242AE02021C848FBF786
:104DD000E6FB8021C648FBF7E2FB4FF40071C448B4
:104DE000FBF7DDFB4FF40061C148FBF7D8FB3C202B
:104DF000FDF7C6F92021BE48FBF7CFFB8021BC4858
:104E0000FBF7CBFB4FF40071B948FBF7C6FB4FF43F
:104E10000061B748FBF7C1FB3C20FDF7B1F9641C0A
:104E2000AC42D2DBBDE8F0812DE9F0410646012716
:104E3000012F07D1AD49304605F04EFC804605F004
:104E400069FE05464021AA48FBF7A7FB4FF48061A5
:104E5000A748FBF7A2FB4FF48051A548FBF79FFB47
:104E60004FF48071A248FBF79AFB00242AE020212E
:104E70009F48FBF794FB80219D48FBF790FB4FF484
:104E800000719B48FBF78BFB4FF400619848FBF7E0
:104E900086FB3C20FDF774F920219548FBF77DFB4C
:104EA00080219348FBF779FB4FF400719048FBF7A2
:104EB00074FB4FF400618E48FBF76FFB3C20FDF75D
:104EC0005FF9641CAC42D2DBBDE8F0812DE9F04112
:104ED00006460127012F07D18449304605F0FCFB27
:104EE000804605F017FE05464FF480718048FBF7B9
:104EF00054FB40217E48FBF752FB002416E02021A2
:104F00007B48FBF74CFB80217948FBF748FB3C20B2
:104F1000FDF736F920217648FBF73FFB80217448E6
:104F2000FBF73BFB3C20FDF72BF9641CAC42E6DBB6
:104F3000BDE8F0812DE9F04106460127012F07D198
:104F40006A49304605F0C8FB804605F0E3FD05469A
:104F50004FF480616648FBF720FB4FF480516448B2
:104F6000FBF71DFB00241AE04FF400716048FBF7CB
:104F700016FB4FF400615E48FBF711FB3C20FDF788
:104F8000FFF84FF400715A48FBF707FB4FF400613C
:104F90005748FBF702FB3C20FDF7F2F8641CAC42DB
:104FA000E2DBBDE8F0812DE9F04106460127012F43
:104FB00007D14E49304605F08FFB804605F0AAFD2B
:104FC000054640214A48FBF7EAFA4FF48071484809
:104FD000FBF7E5FA4FF480614548FBF7E0FA4FF440
:104FE00080514348FBF7DBFA00242AE020214048A7
:104FF000FBF7D5FA80213E48FBF7D1FA4FF4007158
:105000003B48FBF7CCFA4FF400613948FBF7C7FA8D
:105010006420FDF7B5F820213548FBF7BEFA802162
:105020003348FBF7BAFA4FF400713148FBF7B5FA91
:105030004FF400612E48FBF7B0FA6420FDF7A0F8AA
:10504000641CAC42D2DBBDE8F0812DE9F04106469C
:105050000127012F07D12549304605F03DFB804649
:1050600005F058FD054640212148FBF796FA4FF41C
:1050700080711F48FBF791FA4FF480611C48FBF7E1
:105080008CFA4FF480511A48FBF787FA00242AE083
:1050900020211748FBF783FA80211548FBF77FFA98
:1050A0004FF400711248FBF77AFA4FF40061104890
:1050B000FBF775FA6420FDF763F820210C48FBF735
:1050C0006CFA80210A48FBF768FA4FF4007108482F
:1050D000FBF763FA4FF400610548FBF75EFA6420C2
:1050E000FDF74EF8641CAC42D2DB03E000007A44CA
:1050F00000140140BDE8F0812DE9F04706460D4659
:10510000F849304605F0E8FA8146F74905F01AFB00
:10511000804605F018FD0746012D08D10121F3480E
:10512000FBF73BFA4021F148FBF737FA07E0012192
:10513000EE48FBF734FA4021EC48FBF730FA002444
:1051400016E00221E948FBF72AFA8021E748FBF73D
:1051500026FA0820FDF714F80221E448FBF71DFAAF
:105160008021E248FBF719FA0820FDF709F8641CD2
:10517000BC42E6D3BDE8F0872DE9F04706460D4670
:10518000D849304605F0A8FA8146D74905F0DAFA41
:10519000804605F0D8FC0746012D08D12903D348E5
:1051A000FBF7FBF90421D248FBF7F7F908E04FF4CD
:1051B0008051CE48FBF7F3F90421CD48FBF7EFF916
:1051C000002418E04FF40051C848FBF7E8F9082123
:1051D000C748FBF7E4F90820FCF7D2FF4FF4005171
:1051E000C248FBF7DAF90821C148FBF7D6F90820D5
:1051F000FCF7C6FF641CBC42E4D3BDE8F0872DE990
:10520000F04706460D46B749304605F065FA814637
:10521000B54905F097FA804605F095FC0746012D43
:1052200008D10421B148FBF7B8F92902AF48FBF7D0
:10523000B4F908E00421AD48FBF7B1F94FF48071EF
:10524000AA48FBF7ACF9002418E00821A748FBF7AF
:10525000A6F94FF40071A548FBF7A1F90820FCF767
:105260008FFF0821A148FBF798F94FF400719F4880
:10527000FBF793F90820FCF783FF641CBC42E4D3DE
:10528000BDE8F0872DE9F04706460D4695493046C2
:1052900005F022FA8146944905F054FA804605F05B
:1052A00052FC0746012D08D1A9039048FBF775F978
:1052B00010218F48FBF771F911E004218B48FBF7AF
:1052C0006EF94FF480718948FBF769F94FF480411A
:1052D0008648FBF764F910218548FBF760F9002444
:1052E00018E04FF400418148FBF759F9202180482C
:1052F000FBF755F90820FCF743FF4FF400417B48CA
:10530000FBF74BF920217A48FBF747F90820FCF717
:1053100037FF641CBC42E4D3BDE8F0872DE9F047B9
:1053200006460D466F49304605F0D6F981466E496E
:1053300005F008FA804605F006FC0746012D08D165
:1053400004216A48FBF729F9A9036848FBF725F906
:1053500008E004216548FBF722F94FF480416348D7
:10536000FBF71DF9002418E008216048FBF717F946
:105370004FF400415D48FBF712F90820FCF700FFED
:1053800008215A48FBF709F94FF400415748FBF749
:1053900004F90820FCF7F4FE641CBC42E4D3BDE829
:1053A000F0872DE9F04706460D464E49304605F098
:1053B00093F981464C4905F0C5F9804605F0C3FBD9
:1053C0000746012D08D129024848FBF7E6F81021CD
:1053D0004748FBF7E2F808E04FF480714348FBF7D9
:1053E000DEF810214248FBF7DAF8002418E04FF409
:1053F00000713E48FBF7D3F820213D48FBF7CFF87A
:105400000820FCF7BDFE4FF400713848FBF7C5F8E3
:1054100020213748FBF7C1F80820FCF7B1FE641CD7
:10542000BC42E4D3BDE8F0872DE9F04706460D46BF
:105430002C49304605F050F981462B4905F082F998
:10544000804605F080FB0746012D08D14021274802
:10545000FBF7A3F829022548FBF79FF808E0402155
:105460002248FBF79CF84FF480712048FBF797F82F
:10547000002418E080211D48FBF791F84FF40071DB
:105480001A48FBF78CF80820FCF77AFE80211748B1
:10549000FBF783F84FF400711448FBF77EF80820FF
:1054A000FCF76EFE641CBC42E4D3BDE8F0872DE936
:1054B000F04706460D460B49304605F00DF981468A
:1054C000094905F03FF9804605F03DFB0746012DEF
:1054D00010D129030548FBF760F8A9030348FBF73F
:1054E0005CF811E00000484400004040001C01400E
:1054F000002001404FF48051FF48FBF750F84FF473
:105500008041FD48FBF74BF800241AE04FF40051AE
:10551000F948FBF744F84FF40041F748FBF73FF830
:105520000820FCF72DFE4FF40051F348FBF735F847
:105530004FF40041F048FBF730F80820FCF720FE5C
:10554000641CBC42E2D3BDE8F0872DE9F047064673
:105550000D46EA49304605F0BFF88146E84905F0B6
:10556000F1F8804605F0EFFA0746012D08D1042135
:10557000E448FBF712F81021E248FBF70EF807E0C9
:105580000421E048FBF70BF81021DE48FBF707F891
:10559000002416E00821DB48FBF701F82021D94858
:1055A000FAF7FDFF0820FCF7EBFD0821D548FAF7D4
:1055B000F4FF2021D348FAF7F0FF0820FCF7E0FDC4
:1055C000641CBC42E6D3BDE8F0872DE9F0470646EF
:1055D0000D46CA49304605F07FF88146C84905F0B6
:1055E000B1F8804605F0AFFA0746012D08D1012138
:1055F000C148FAF7D2FF0421BF48FAF7CEFF07E00F
:105600000121BD48FAF7CBFF0421BB48FAF7C7FFD9
:10561000002416E00221B848FAF7C1FF0821B64875
:10562000FAF7BDFF0820FCF7ABFD0221B248FAF7FC
:10563000B4FF0821B048FAF7B0FF0820FCF7A0FD3E
:10564000641CBC42E6D3BDE8F0872DE9F04706466E
:105650000D46AA49304605F03FF88146A84905F0B5
:1056600071F8804605F06FFA0746012D10D101212F
:10567000A148FAF792FF40219F48FAF78EFF2903CD
:105680009D48FAF78AFF04219E48FAF786FF10E04A
:1056900001219948FAF783FF40219748FAF77FFFE5
:1056A0004FF480519448FAF77AFF04219548FAF7AD
:1056B00076FF002428E002218F48FAF770FF80214E
:1056C0008D48FAF76CFF4FF400518B48FAF767FFEB
:1056D00008218C48FAF763FF0820FCF751FD0221EE
:1056E0008548FAF75AFF80218348FAF756FF4FF4AE
:1056F00000518148FAF751FF08218248FAF74DFF1F
:105700000820FCF73DFD641CBC42D4D3BDE8F08703
:105710002DE9F04706460D467849304604F0DCFF97
:105720008146774905F00EF8804605F00CFA0746E9
:10573000012D10D101217048FAF72FFF40216E484A
:10574000FAF72DFF29036C48FAF727FF04216D486B
:10575000FAF725FF10E001216748FAF720FF402102
:105760006548FAF71AFF4FF480516348FAF717FFBC
:1057700004216448FAF711FF002428E002215E4862
:10578000FAF70DFF80215C48FAF709FF4FF400514A
:105790005948FAF704FF08215A48FAF700FF082091
:1057A000FCF7EEFC02215448FAF7F7FE802152483C
:1057B000FAF7F3FE4FF400514F48FAF7EEFE0821D6
:1057C0005048FAF7EAFE0820FCF7DAFC641CBC42F9
:1057D000D4D3BDE8F0872DE9F04706460D4647498A
:1057E000304604F079FF8146454904F0ABFF80461E
:1057F00005F0A9F90746012D10D101213E48FAF71D
:10580000CCFE40213C48FAF7CAFE29033A48FAF791
:10581000C4FE04213B48FAF7C2FE10E001213648DD
:10582000FAF7BDFE40213448FAF7B7FE4FF4805135
:105830003148FAF7B4FE04213248FAF7AEFE0024EC
:1058400058E080212C48FAF7AAFE4FF400512A486C
:10585000FAF7A5FE0820FCF793FC80212648FAF70A
:105860009CFE4FF400512448FAF797FE0820FCF7FD
:1058700087FC80212048FAF792FE4FF400511E4821
:10588000FAF78DFE0820FCF77BFC80211A48FAF716
:1058900084FE4FF400511848FAF77FFE0820FCF709
:1058A0006FFC02211448FAF77AFE80211248FAF7B9
:1058B00076FE4FF400511048FAF771FE08211148A6
:1058C000FAF76DFE0820FCF75BFC02210A48FAF7A4
:1058D00064FE80210848FAF760FE4FF40051064844
:1058E000FAF75BFE08210748FAF757FE0820FCF795
:1058F00047FC641CBC4207E0001C01400000484417
:1059000000004040002001409BD3BDE8F0872DE916
:10591000F04706460D46FF49304604F0DDFE81465D
:10592000FD4904F00FFF804605F00DF90746012DF3
:1059300010D10121F948FAF732FE4021F748FAF771
:105940002EFE2903F548FAF728FE0421F448FAF759
:1059500024FE10E00121F148FAF71FFE4021EF4834
:10596000FAF71BFE4FF48051EC48FAF718FE0421B9
:10597000EB48FAF714FE00242AE00221E748FAF780
:105980000EFE8021E548FAF70AFE4FF40051E34885
:10599000FAF705FE0821E248FAF701FE4FF4FA7023
:1059A000FCF7EEFB0221DD48FAF7F7FD8021DB482A
:1059B000FAF7F3FD4FF40051D848FAF7EEFD08214D
:1059C000D748FAF7EAFD4FF4FA70FCF7D9FB641CEC
:1059D000BC42D2D3BDE8F0872DE9F04706460D461C
:1059E000CC49304604F078FE8146CB4904F0AAFE4B
:1059F000804605F0A8F80746012D10D10421C748BC
:105A0000FAF7CBFD2902C548FAF7C7FDA903C34839
:105A1000FAF7C3FD1021C248FAF7BFFD11E00421D7
:105A2000BE48FAF7BCFD4FF48071BC48FAF7B7FDE9
:105A30004FF48041B948FAF7B2FD1021B848FAF79F
:105A4000AEFD00242AE00821B448FAF7A8FD4FF47F
:105A50000071B248FAF7A3FD4FF40041AF48FAF7DE
:105A60009EFD2021AE48FAF79AFD0820FCF788FB3E
:105A70000821AA48FAF791FD4FF40071A748FAF7F8
:105A80008CFD4FF40041A548FAF787FD2021A4487A
:105A9000FAF783FD0820FCF773FB641CBC42D2D3E9
:105AA000BDE8F0872DE9F04706460D469949304696
:105AB00004F012FE8146984904F044FE804605F049
:105AC00042F80746012D10D104219448FAF765FDEC
:105AD00029029248FAF763FDA9039048FAF75DFDA1
